:020000040000FA
:0400000081EF00F09C
:10000800480130013001300140003001400030012A
:100018003001300130013001300130013001300150
:100028003001400040004000300130013001300113
:100038003001300130014101E1003001300130016F
:100048003001300130013001400040003001300102
:100058003001300130014000300130013001300101
:100068003001300130013001300130013001300100
:1000780030013001300130014000300130013001E1
:1000880030013001300130013001300130013001E0
:1000980030013001300130014000300140004000A3
:1000A80030013001300130013001300130013001C0
:1000B80030013001300130013001300130013001B0
:1000C80030013001300130013001300130013001A0
:1000D8003001300130013001300130013001300190
:1000E8004000300130013001400040004000400035
:1000F8003001300130013001FF0050EF01F0808302
:1001080086898C8F9295989B9EA2A5A7AAADB0B31D
:10011800B6B9BCBEC1C4C6C9CBCED0D3D5D7DADC3C
:10012800DEE0E2E4E6E8EAEBEDEEF0F1F3F4F5F612
:10013800F8F9FAFAFBFCFDFDFEFEFEFFFFFFFFFFEC
:10014800FFFFFEFEFEFDFDFCFBFAFAF9F8F6F5F4FA
:10015800F3F1F0EEEDEBEAE8E6E4E2E0DEDCDAD734
:10016800D5D3D0CECBC9C6C4C1BEBCB9B6B3B0AD69
:10017800AAA7A5A29E9B9895928F8C898683807C3E
:10018800797673706D6A6764615D5A5855524F4C41
:10019800494643413E3B393634312F2C2A28252302
:1001A800211F1D1B1917151412110F0E0C0B0A090C
:1001B8000706050504030202010101000000000012
:1001C80000000101010202030405050607090A0BE4
:1001D8000C0E0F1112141517191B1D1F212325288A
:1001E8002A2C2F313436393B3E414346494C4F5235
:1001F80055585A5D6164676A6D707376797C21EE33
:1002080001F111EE60F1370EDBC4E3F4E806FCE21D
:1002180021EE00F211EE98F1370EDBC4E3F4E806A4
:10022800FCE20501D251020D980EF324D96E050E99
:10023800F420DA6ED051DE1807E1D151DE18D8A4C7
:1002480028EF01F02AEF01F04CEF01F0000ED16F1A
:10025800000ED06F1C0ED219D8A435EF01F037EF7D
:1002680001F039EF01F0000ED26FD22BD251020DFE
:10027800600EF324D96E050EF420DA6E610078F36F
:100288004AF5610074F34BF5010E4C6E97EC01F0E2
:100298000501D04BD12B1200060EF66E010EF76E3B
:1002A800000EF86E01EE00F310EE00F10900F5C43F
:1002B800EEF4E550E150FAE1E250F8E1F60EF66EA0
:1002C800030EF76E000EF86E01EE00F210EE38F035
:1002D8000900F5C4EEF4E550E150FAE1BE0EF66E01
:1002E800030EF76E000EF86E01EE01F110EE38F015
:1002F8000900F5C4EEF4E550E150FAE10501D36BCD
:10030800D26BD16BD06B01EE39F1100EEE6AE806B4
:10031800FDE10401080E5D6F000E5E6F000E5F6F59
:10032800000131EF02F003011E91800E4B5CD8A052
:10033800A0EF01F0A2EF01F0A5EF01F07F0E4B6EE8
:100348004A684A1C4D6E4B1C4E6E4E50486E4DC549
:1003580047F5610020F51DF361001CF51CF346907C
:100368004C50D8B4BAEF01F0BCEF01F0BDEF01F08A
:0A0378004680B198A1881E81120092
:10038400610020F51DF361001CF51CF3000E4524EB
:10039400D96EDA6A070EDA22DF5000017D6F040E8F
:1003A4004526B19846B0D9EF01F0DBEF01F0DEEF5E
:1003B40001F0A19803011E9111003C0000003C00D3
:1003C4000000280000002800000024000000240091
:1003D4000000280000002D0000002D0000002F0068
:1003E40000002F00000035000000350000003C0034
:1003F400000000023200000232000002320000025B
:100404003200000232000002320000043200000216
:100414003200000232000002320000023200000208
:1004240032000002320000023200000E416E000E63
:10043400426E000E436E000E446E000E396E000EC6
:100444003A6E000E3B6E000E3C6E7D0E0301236F70
:10045400010E266FB196F00E246FA18612000501DD
:10046400D38F92EC02F06DEC02F08CEC02F017ECFE
:1004740002F049EC02F00501D39F03EC01F0BE9EAB
:1004840078EC02F0BE8E3FEF02F081EF00F0C00E78
:10049400BE16900E03011A6F540E1B6F000E1F6FD1
:1004A400010E216F310E1E6F000E4B6E100E4A6E40
:0A04B400010E4C6E97EC01F01200EF
:1004C000610060F349F5010E3D26000E3E223F22F9
:1004D0004022610024F5D8F41100000E0401006FE1
:1004E000000EC66EA00E00017F6F000E7D6F120021
:1004F0000501D38DD3BD7FEF02F081EF02F07AEFDB
:1005000002F01200B1960501D39D010E4126000EA6
:100510004222432244221100D68AD68ED68C120063
:06052000AE901100120074
:020000040020DA
:10000000FF0FFF0FFF0FFF0FFF0FFF0FFF0FFF0F80
:10001000FF0FFF0FFF0FFF0FFF0FFF0FFF0FFF0F70
:020000040030CA
:0A0000008CFEFFFC9FFFFFFFFFFFD7
:00000001FF
