:020000040000FA
:04000000FEEFFFF020
:020000040001F9
:10FEB4001200213129252321000EC66E000E0401F3
:10FEC400006F000EBE6E1200800EBE6E900E030117
:10FED4001A6F540E1B6F1200000EC66E800EBE6E9B
:10FEE400000ECE6E000E0401006F1200171C196E76
:10FEF400181C1A6E100E03011A6F1A50196F000E97
:10FF0400186FB19E900E1A6F1200000E096E000E4B
:10FF14000A6E000E0B6E000E0C6E000E056E000EC7
:10FF2400066E000E076E000E086E1200B60EF66E18
:10FF3400FE0EF76E010EF86E01EE11F110EE06F0F2
:10FF44000900F5C4EEF4E550E150FAE101EE01F1E7
:10FF5400100EEE6AE806FDE10001B1EFFFF0048E39
:10FF64005EECFFF087ECFFF06EECFFF066ECFFF068
:10FF7400D1ECFFF0BE9E5AECFFF0030E186EE80EB3
:10FF8400176E78ECFFF0B1AECAEFFFF0CCEFFFF0E4
:10FF9400C5EFFFF0BE50BAEFFFF0FEEFFFF0F40E36
:10FFA4000D5C010E0E58D8A0DAEFFFF0DCEFFFF085
:10FFB400F7EFFFF0060E0F18D8A4E3EFFFF0E5EF1C
:10FFC400FFF0E7EFFFF0000E0F6E110E0F24D96E55
:10FFD400DA6A050EDA22DF50BE6E0F280F6E000EAD
:10FFE4000E6E000E0D6EFDEFFFF0010E0D240D6E72
:0CFFF400000E0E200E6E120098EFFFF0C1
:020000040020DA
:10000000FF0FFF0FFF0FFF0FFF0FFF0FFF0FFF0F80
:10001000FF0FFF0FFF0FFF0FFF0FFF0FFF0FFF0F70
:020000040030CA
:0A0000008CFEFFFC9FFFFFFFFFFFD7
:00000001FF
