:020000040000FA
:04000000FEEFFFF020
:020000040001F9
:10FEBA001200213129252321000EC66E000E0401ED
:10FECA00006F000EBE6E1200800EBE6E900E030111
:10FEDA001A6F540E1B6F1200000EC66E800EBE6E95
:10FEEA00000ECE6E000E0401006F1200000E096EA5
:10FEFA00000E0A6E000E0B6E000E0C6E000E056EE2
:10FF0A00000E066E000E076E000E086E1200030148
:10FF1A001A9F171C196E181C1A6E1AC519F51A6A37
:10FF2A001950196F1750FF0A186FB19E1A8F1200D5
:10FF3A00BC0EF66EFE0EF76E010EF86E01EE11F1B2
:10FF4A0010EE06F00900F5C4EEF4E550E150FAE1CE
:10FF5A0001EE01F1100EEE6AE806FDE10001B6EFCE
:10FF6A00FFF0048E61ECFFF07BECFFF071ECFFF028
:10FF7A0069ECFFF0D6ECFFF0BE9E5DECFFF0030EDD
:10FF8A00186EE80E176E8CECFFF0B1AECFEFFFF0F3
:10FF9A00D1EFFFF0CAEFFFF0BE50BFEFFFF0FEEF68
:10FFAA00FFF0F40E0D1806E10E04D8A4DFEFFFF0FF
:10FFBA00E1EFFFF0FBEFFFF0060E0F18D8A4E8EF11
:10FFCA00FFF0EAEFFFF0ECEFFFF0000E0F6E110EFC
:10FFDA000F24D96EDA6A050EDA22DF50BE6E0F2AB6
:10FFEA00000E0E6E000E0D6EFDEFFFF00D4A0E2A8A
:06FFFA0012009DEFFFF074
:020000040020DA
:10000000FF0FFF0FFF0FFF0FFF0FFF0FFF0FFF0F80
:10001000FF0FFF0FFF0FFF0FFF0FFF0FFF0FFF0F70
:020000040030CA
:0A0000008CFEFFFC9FFFFFFFFFFFD7
:00000001FF
