:020000040000FA
:04000000FEEFFFF020
:020000040001F9
:10FF4800120012001200120001EE01F10D0EEE6A0D
:10FF5800E806FDE10001C2EFFFF0000E096E000E99
:10FF68000A6E000E0B6E000E0C6E000E056E000E73
:10FF7800066E000E076E000E086E1200048EA4ECCA
:10FF8800FFF0B1ECFFF0A5ECFFF0A7ECFFF0D3EC2D
:10FF9800FFF0A6ECFFF0CBEFFFF0FEEFFFF0800ED6
:10FFA800BE6E010E146E000E156E000E166E000E5B
:10FFB800176E010E1426000E15221622172217504E
:10FFC8001610151009E1410E145CD8A0EEEFFFF0F1
:10FFD800F0EFFFF0DDEFFFF0BE2A150E0F6E4B0EAF
:10FFE8000E6EBE0EE82EFED70E2EFCD70F2EFAD7B9
:08FFF80000D01200A8EFFFF099
:020000040020DA
:10000000FF0FFF0FFF0FFF0FFF0FFF0FFF0FFF0F80
:10001000FF0FFF0FFF0FFF0FFF0FFF0FFF0FFF0F70
:020000040030CA
:0A0000008CFEFFFC9FFFFFFFFFFFD7
:00000001FF
