:020000040000FA
:04000000FEEFFFF020
:020000040001F9
:10FED60012001200120001EE01F1110EEE6AE806A0
:10FEE600FDE1000188EFFFF0000E0D6E000E0E6EB4
:10FEF600000E0F6E000E106E000E096E000E0A6EDA
:10FF0600000E0B6E000E0C6E1200088E6BECFFF0EE
:10FF160077ECFFF099ECFFF06DECFFF0ADECFFF045
:10FF26006CECFFF091EFFFF0FEEFFFF0000EBE6EFF
:10FF3600000ECE6E000EC66E000E0401006F800E1F
:10FF4600BE6E000EBF6E000ECF6E300EC76E000E78
:10FF5600086F1200010E126E000E136E000E146E64
:10FF6600000E156ECFAABAEFFFF0BCEFFFF0D0EF90
:10FF7600FFF00150021003100410D8A4C5EFFFF0E3
:10FF8600C7EFFFF0D0EFFFF0BE2A010E016E000EA4
:10FF9600026E000E036E000E046ECFBAD5EFFFF0B0
:10FFA600D7EFFFF0EAEFFFF0010402100310041090
:10FFB600D8A4E0EFFFF0E2EFFFF0EAEFFFF0000E6B
:10FFC600016E000E026E000E036E000E046E010E30
:10FFD6001226000E13221422152215501410131087
:10FFE60009E1410E125CD8A0FBEFFFF0FDEFFFF038
:0AFFF600B5EFFFF012006EEFFFF010
:020000040020DA
:10000000FF0FFF0FFF0FFF0FFF0FFF0FFF0FFF0F80
:10001000FF0FFF0FFF0FFF0FFF0FFF0FFF0FFF0F70
:020000040030CA
:0A0000008CFEFFFC9FFFFFFFFFFFD7
:00000001FF
